{
    "_format": "hh-sol-artifact-1",
    "contractName": "command-nexus",
    "sourceName": "command_nexus/command-nexus.sol",
    "abi": [
        {
            "inputs": [],
            "stateMutability": "nonpayable",
            "type": "constructor"
        },
        {
            "inputs": [],
            "name": "arc721Contract",
            "outputs": [
                {
                    "internalType": "contract ARC721",
                    "name": "",
                    "type": "address"
                }
            ],
            "stateMutability": "view",
            "type": "function"
        },
        {
            "inputs": [
                {
                    "internalType": "uint256",
                    "name": "",
                    "type": "uint256"
                }
            ],
            "name": "games",
            "outputs": [
                {
                    "internalType": "uint256",
                    "name": "gameId",
                    "type": "uint256"
                },
                {
                    "internalType": "address",
                    "name": "player1",
                    "type": "address"
                },
                {
                    "internalType": "address",
                    "name": "player2",
                    "type": "address"
                },
                {
                    "internalType": "address",
                    "name": "winner",
                    "type": "address"
                }
            ],
            "stateMutability": "view",
            "type": "function"
        },
        {
            "inputs": [],
            "name": "getARC721Name",
            "outputs": [
                {
                    "internalType": "string",
                    "name": "",
                    "type": "string"
                }
            ],
            "stateMutability": "view",
            "type": "function"
        },
        {
            "inputs": [],
            "name": "getARC721Symbol",
            "outputs": [
                {
                    "internalType": "string",
                    "name": "",
                    "type": "string"
                }
            ],
            "stateMutability": "view",
            "type": "function"
        },
        {
            "inputs": [],
            "name": "getAllGames",
            "outputs": [
                {
                    "components": [
                        {
                            "internalType": "uint256",
                            "name": "gameId",
                            "type": "uint256"
                        },
                        {
                            "internalType": "address",
                            "name": "player1",
                            "type": "address"
                        },
                        {
                            "internalType": "address",
                            "name": "player2",
                            "type": "address"
                        },
                        {
                            "internalType": "address",
                            "name": "winner",
                            "type": "address"
                        }
                    ],
                    "internalType": "struct command-nexus.Game[]",
                    "name": "",
                    "type": "tuple[]"
                }
            ],
            "stateMutability": "view",
            "type": "function"
        },
        {
            "inputs": [],
            "name": "getAllPlayers",
            "outputs": [
                {
                    "components": [
                        {
                            "internalType": "address",
                            "name": "playerAddress",
                            "type": "address"
                        },
                        {
                            "internalType": "string",
                            "name": "username",
                            "type": "string"
                        },
                        {
                            "internalType": "uint256",
                            "name": "gamesPlayed",
                            "type": "uint256"
                        },
                        {
                            "internalType": "uint256",
                            "name": "rewardsCount",
                            "type": "uint256"
                        },
                        {
                            "internalType": "uint256",
                            "name": "playerRank",
                            "type": "uint256"
                        },
                        {
                            "internalType": "uint256[]",
                            "name": "wins",
                            "type": "uint256[]"
                        }
                    ],
                    "internalType": "struct command-nexus.Player[]",
                    "name": "",
                    "type": "tuple[]"
                }
            ],
            "stateMutability": "view",
            "type": "function"
        },
        {
            "inputs": [],
            "name": "getAllRewards",
            "outputs": [
                {
                    "components": [
                        {
                            "internalType": "uint256",
                            "name": "tokenId",
                            "type": "uint256"
                        },
                        {
                            "internalType": "address",
                            "name": "reward_to",
                            "type": "address"
                        }
                    ],
                    "internalType": "struct command-nexus.Reward[]",
                    "name": "",
                    "type": "tuple[]"
                }
            ],
            "stateMutability": "view",
            "type": "function"
        },
        {
            "inputs": [],
            "name": "getAllWins",
            "outputs": [
                {
                    "components": [
                        {
                            "internalType": "uint256",
                            "name": "winId",
                            "type": "uint256"
                        },
                        {
                            "internalType": "string",
                            "name": "winTrace",
                            "type": "string"
                        },
                        {
                            "internalType": "address",
                            "name": "winningPlayer",
                            "type": "address"
                        }
                    ],
                    "internalType": "struct command-nexus.Win[]",
                    "name": "",
                    "type": "tuple[]"
                }
            ],
            "stateMutability": "view",
            "type": "function"
        },
        {
            "inputs": [
                {
                    "internalType": "address",
                    "name": "owner",
                    "type": "address"
                }
            ],
            "name": "getBalanceOf",
            "outputs": [
                {
                    "internalType": "uint256",
                    "name": "",
                    "type": "uint256"
                }
            ],
            "stateMutability": "view",
            "type": "function"
        },
        {
            "inputs": [
                {
                    "internalType": "uint256",
                    "name": "gameId",
                    "type": "uint256"
                }
            ],
            "name": "getGameById",
            "outputs": [
                {
                    "components": [
                        {
                            "internalType": "uint256",
                            "name": "gameId",
                            "type": "uint256"
                        },
                        {
                            "internalType": "address",
                            "name": "player1",
                            "type": "address"
                        },
                        {
                            "internalType": "address",
                            "name": "player2",
                            "type": "address"
                        },
                        {
                            "internalType": "address",
                            "name": "winner",
                            "type": "address"
                        }
                    ],
                    "internalType": "struct command-nexus.Game",
                    "name": "",
                    "type": "tuple"
                }
            ],
            "stateMutability": "view",
            "type": "function"
        },
        {
            "inputs": [
                {
                    "internalType": "uint256",
                    "name": "tokenId",
                    "type": "uint256"
                }
            ],
            "name": "getRewardById",
            "outputs": [
                {
                    "components": [
                        {
                            "internalType": "uint256",
                            "name": "tokenId",
                            "type": "uint256"
                        },
                        {
                            "internalType": "address",
                            "name": "reward_to",
                            "type": "address"
                        }
                    ],
                    "internalType": "struct command-nexus.Reward",
                    "name": "",
                    "type": "tuple"
                }
            ],
            "stateMutability": "view",
            "type": "function"
        },
        {
            "inputs": [
                {
                    "internalType": "uint256",
                    "name": "tokenId",
                    "type": "uint256"
                }
            ],
            "name": "getTokenMetadata",
            "outputs": [
                {
                    "internalType": "string",
                    "name": "",
                    "type": "string"
                }
            ],
            "stateMutability": "view",
            "type": "function"
        },
        {
            "inputs": [],
            "name": "getTotalSupply",
            "outputs": [
                {
                    "internalType": "uint256",
                    "name": "",
                    "type": "uint256"
                }
            ],
            "stateMutability": "view",
            "type": "function"
        },
        {
            "inputs": [
                {
                    "internalType": "uint256",
                    "name": "winId",
                    "type": "uint256"
                }
            ],
            "name": "getWinById",
            "outputs": [
                {
                    "components": [
                        {
                            "internalType": "uint256",
                            "name": "winId",
                            "type": "uint256"
                        },
                        {
                            "internalType": "string",
                            "name": "winTrace",
                            "type": "string"
                        },
                        {
                            "internalType": "address",
                            "name": "winningPlayer",
                            "type": "address"
                        }
                    ],
                    "internalType": "struct command-nexus.Win",
                    "name": "",
                    "type": "tuple"
                }
            ],
            "stateMutability": "view",
            "type": "function"
        },
        {
            "inputs": [
                {
                    "internalType": "address",
                    "name": "",
                    "type": "address"
                }
            ],
            "name": "players",
            "outputs": [
                {
                    "internalType": "address",
                    "name": "playerAddress",
                    "type": "address"
                },
                {
                    "internalType": "string",
                    "name": "username",
                    "type": "string"
                },
                {
                    "internalType": "uint256",
                    "name": "gamesPlayed",
                    "type": "uint256"
                },
                {
                    "internalType": "uint256",
                    "name": "rewardsCount",
                    "type": "uint256"
                },
                {
                    "internalType": "uint256",
                    "name": "playerRank",
                    "type": "uint256"
                }
            ],
            "stateMutability": "view",
            "type": "function"
        },
        {
            "inputs": [
                {
                    "internalType": "uint256",
                    "name": "winId",
                    "type": "uint256"
                },
                {
                    "internalType": "string",
                    "name": "winTrace",
                    "type": "string"
                },
                {
                    "internalType": "address",
                    "name": "opponent",
                    "type": "address"
                },
                {
                    "internalType": "string",
                    "name": "player_username",
                    "type": "string"
                }
            ],
            "name": "recordWin",
            "outputs": [],
            "stateMutability": "nonpayable",
            "type": "function"
        },
        {
            "inputs": [
                {
                    "internalType": "uint256",
                    "name": "",
                    "type": "uint256"
                }
            ],
            "name": "rewards",
            "outputs": [
                {
                    "internalType": "uint256",
                    "name": "tokenId",
                    "type": "uint256"
                },
                {
                    "internalType": "address",
                    "name": "reward_to",
                    "type": "address"
                }
            ],
            "stateMutability": "view",
            "type": "function"
        },
        {
            "inputs": [
                {
                    "internalType": "uint256",
                    "name": "",
                    "type": "uint256"
                }
            ],
            "name": "wins",
            "outputs": [
                {
                    "internalType": "uint256",
                    "name": "winId",
                    "type": "uint256"
                },
                {
                    "internalType": "string",
                    "name": "winTrace",
                    "type": "string"
                },
                {
                    "internalType": "address",
                    "name": "winningPlayer",
                    "type": "address"
                }
            ],
            "stateMutability": "view",
            "type": "function"
        }
    ],
    "bytecode": "0x60806040523480156200001157600080fd5b50604051620000209062000083565b604051809103906000f0801580156200003d573d6000803e3d6000fd5b506000806101000a81548173ffffffffffffffffffffffffffffffffffffffff021916908373ffffffffffffffffffffffffffffffffffffffff16021790555062000091565b6110978062002ddd83390190565b612d3c80620000a16000396000f3fe608060405234801561001057600080fd5b50600436106101165760003560e01c80639b96eece116100a2578063e2eb41ff11610071578063e2eb41ff14610312578063e34b06a614610346578063e7c0e21e14610376578063efa1c48214610392578063f301af42146103b057610116565b80639b96eece14610288578063b27f74f5146102b8578063c4e41b22146102d6578063db1c45f9146102f457610116565b8063431ebae8116100e9578063431ebae8146101ba57806345b35f56146101d857806360316801146101f657806380bfe88314610226578063879e35951461025857610116565b8063096605131461011b578063117a5b901461014b57806316490dfb1461017e5780633c7637a61461019c575b600080fd5b61013560048036038101906101309190611c6e565b6103e1565b6040516101429190611d40565b60405180910390f35b61016560048036038101906101609190611c6e565b61051a565b6040516101759493929190611d79565b60405180910390f35b6101866105aa565b6040516101939190611f60565b60405180910390f35b6101a4610780565b6040516101b19190611fcc565b60405180910390f35b6101c261081b565b6040516101cf9190611fcc565b60405180910390f35b6101e06108b6565b6040516101ed91906120cc565b60405180910390f35b610210600480360381019061020b9190611c6e565b6109fa565b60405161021d9190611fcc565b60405180910390f35b610240600480360381019061023b9190611c6e565b610aa2565b60405161024f939291906120ee565b60405180910390f35b610272600480360381019061026d9190611c6e565b610b74565b60405161027f919061215b565b60405180910390f35b6102a2600480360381019061029d91906121a2565b610c01565b6040516102af91906121cf565b60405180910390f35b6102c0610ca5565b6040516102cd9190612249565b60405180910390f35b6102de610cc9565b6040516102eb91906121cf565b60405180910390f35b6102fc610d60565b6040516103099190612368565b60405180910390f35b61032c600480360381019061032791906121a2565b610f50565b60405161033d95949392919061238a565b60405180910390f35b610360600480360381019061035b9190611c6e565b61102e565b60405161036d9190612434565b60405180910390f35b610390600480360381019061038b919061258b565b61114d565b005b61039a611783565b6040516103a7919061282b565b60405180910390f35b6103ca60048036038101906103c59190611c6e565b611a11565b6040516103d892919061284d565b60405180910390f35b6103e9611a9d565b60036000838152602001908152602001600020604051806080016040529081600082015481526020016001820160009054906101000a900473ffffffffffffffffffffffffffffffffffffffff1673ffffffffffffffffffffffffffffffffffffffff1673ffffffffffffffffffffffffffffffffffffffff1681526020016002820160009054906101000a900473ffffffffffffffffffffffffffffffffffffffff1673ffffffffffffffffffffffffffffffffffffffff1673ffffffffffffffffffffffffffffffffffffffff1681526020016003820160009054906101000a900473ffffffffffffffffffffffffffffffffffffffff1673ffffffffffffffffffffffffffffffffffffffff1673ffffffffffffffffffffffffffffffffffffffff16815250509050919050565b60036020528060005260406000206000915090508060000154908060010160009054906101000a900473ffffffffffffffffffffffffffffffffffffffff16908060020160009054906101000a900473ffffffffffffffffffffffffffffffffffffffff16908060030160009054906101000a900473ffffffffffffffffffffffffffffffffffffffff16905084565b6060600060088054905067ffffffffffffffff8111156105cd576105cc612460565b5b60405190808252806020026020018201604052801561060657816020015b6105f3611b07565b8152602001906001900390816105eb5790505b50905060005b60088054905081101561077857600760006008838154811061063157610630612876565b5b906000526020600020015481526020019081526020016000206040518060600160405290816000820154815260200160018201805461066f906128d4565b80601f016020809104026020016040519081016040528092919081815260200182805461069b906128d4565b80156106e85780601f106106bd576101008083540402835291602001916106e8565b820191906000526020600020905b8154815290600101906020018083116106cb57829003601f168201915b505050505081526020016002820160009054906101000a900473ffffffffffffffffffffffffffffffffffffffff1673ffffffffffffffffffffffffffffffffffffffff1673ffffffffffffffffffffffffffffffffffffffff168152505082828151811061075a57610759612876565b5b6020026020010181905250808061077090612934565b91505061060c565b508091505090565b606060008054906101000a900473ffffffffffffffffffffffffffffffffffffffff1673ffffffffffffffffffffffffffffffffffffffff166306fdde036040518163ffffffff1660e01b8152600401600060405180830381865afa1580156107ed573d6000803e3d6000fd5b505050506040513d6000823e3d601f19601f8201168201806040525081019061081691906129ec565b905090565b606060008054906101000a900473ffffffffffffffffffffffffffffffffffffffff1673ffffffffffffffffffffffffffffffffffffffff166395d89b416040518163ffffffff1660e01b8152600401600060405180830381865afa158015610888573d6000803e3d6000fd5b505050506040513d6000823e3d601f19601f820116820180604052508101906108b191906129ec565b905090565b6060600060068054905067ffffffffffffffff8111156108d9576108d8612460565b5b60405190808252806020026020018201604052801561091257816020015b6108ff611b3e565b8152602001906001900390816108f75790505b50905060005b6006805490508110156109f257600560006006838154811061093d5761093c612876565b5b90600052602060002001548152602001908152602001600020604051806040016040529081600082015481526020016001820160009054906101000a900473ffffffffffffffffffffffffffffffffffffffff1673ffffffffffffffffffffffffffffffffffffffff1673ffffffffffffffffffffffffffffffffffffffff16815250508282815181106109d4576109d3612876565b5b602002602001018190525080806109ea90612934565b915050610918565b508091505090565b606060008054906101000a900473ffffffffffffffffffffffffffffffffffffffff1673ffffffffffffffffffffffffffffffffffffffff16636914db60836040518263ffffffff1660e01b8152600401610a5591906121cf565b600060405180830381865afa158015610a72573d6000803e3d6000fd5b505050506040513d6000823e3d601f19601f82011682018060405250810190610a9b91906129ec565b9050919050565b6007602052806000526040600020600091509050806000015490806001018054610acb906128d4565b80601f0160208091040260200160405190810160405280929190818152602001828054610af7906128d4565b8015610b445780601f10610b1957610100808354040283529160200191610b44565b820191906000526020600020905b815481529060010190602001808311610b2757829003601f168201915b5050505050908060020160009054906101000a900473ffffffffffffffffffffffffffffffffffffffff16905083565b610b7c611b3e565b60056000838152602001908152602001600020604051806040016040529081600082015481526020016001820160009054906101000a900473ffffffffffffffffffffffffffffffffffffffff1673ffffffffffffffffffffffffffffffffffffffff1673ffffffffffffffffffffffffffffffffffffffff16815250509050919050565b60008060009054906101000a900473ffffffffffffffffffffffffffffffffffffffff1673ffffffffffffffffffffffffffffffffffffffff166370a08231836040518263ffffffff1660e01b8152600401610c5d9190612a35565b602060405180830381865afa158015610c7a573d6000803e3d6000fd5b505050506040513d601f19601f82011682018060405250810190610c9e9190612a65565b9050919050565b60008054906101000a900473ffffffffffffffffffffffffffffffffffffffff1681565b60008060009054906101000a900473ffffffffffffffffffffffffffffffffffffffff1673ffffffffffffffffffffffffffffffffffffffff166318160ddd6040518163ffffffff1660e01b8152600401602060405180830381865afa158015610d37573d6000803e3d6000fd5b505050506040513d601f19601f82011682018060405250810190610d5b9190612a65565b905090565b6060600060048054905067ffffffffffffffff811115610d8357610d82612460565b5b604051908082528060200260200182016040528015610dbc57816020015b610da9611a9d565b815260200190600190039081610da15790505b50905060005b600480549050811015610f48576003600060048381548110610de757610de6612876565b5b90600052602060002001548152602001908152602001600020604051806080016040529081600082015481526020016001820160009054906101000a900473ffffffffffffffffffffffffffffffffffffffff1673ffffffffffffffffffffffffffffffffffffffff1673ffffffffffffffffffffffffffffffffffffffff1681526020016002820160009054906101000a900473ffffffffffffffffffffffffffffffffffffffff1673ffffffffffffffffffffffffffffffffffffffff1673ffffffffffffffffffffffffffffffffffffffff1681526020016003820160009054906101000a900473ffffffffffffffffffffffffffffffffffffffff1673ffffffffffffffffffffffffffffffffffffffff1673ffffffffffffffffffffffffffffffffffffffff1681525050828281518110610f2a57610f29612876565b5b60200260200101819052508080610f4090612934565b915050610dc2565b508091505090565b60016020528060005260406000206000915090508060000160009054906101000a900473ffffffffffffffffffffffffffffffffffffffff1690806001018054610f99906128d4565b80601f0160208091040260200160405190810160405280929190818152602001828054610fc5906128d4565b80156110125780601f10610fe757610100808354040283529160200191611012565b820191906000526020600020905b815481529060010190602001808311610ff557829003601f168201915b5050505050908060020154908060030154908060040154905085565b611036611b07565b600760008381526020019081526020016000206040518060600160405290816000820154815260200160018201805461106e906128d4565b80601f016020809104026020016040519081016040528092919081815260200182805461109a906128d4565b80156110e75780601f106110bc576101008083540402835291602001916110e7565b820191906000526020600020905b8154815290600101906020018083116110ca57829003601f168201915b505050505081526020016002820160009054906101000a900473ffffffffffffffffffffffffffffffffffffffff1673ffffffffffffffffffffffffffffffffffffffff1673ffffffffffffffffffffffffffffffffffffffff16815250509050919050565b60405180606001604052808581526020018481526020013373ffffffffffffffffffffffffffffffffffffffff16815250600760008681526020019081526020016000206000820151816000015560208201518160010190816111b09190612c34565b5060408201518160020160006101000a81548173ffffffffffffffffffffffffffffffffffffffff021916908373ffffffffffffffffffffffffffffffffffffffff160217905550905050600884908060018154018082558091505060019003906000526020600020016000909190919091505560008054906101000a900473ffffffffffffffffffffffffffffffffffffffff1673ffffffffffffffffffffffffffffffffffffffff166301173a74336040518263ffffffff1660e01b815260040161127d9190612a35565b600060405180830381600087803b15801561129757600080fd5b505af11580156112ab573d6000803e3d6000fd5b5050505060405180604001604052808581526020013373ffffffffffffffffffffffffffffffffffffffff16815250600560008681526020019081526020016000206000820151816000015560208201518160010160006101000a81548173ffffffffffffffffffffffffffffffffffffffff021916908373ffffffffffffffffffffffffffffffffffffffff1602179055509050506006849080600181540180825580915050600190039060005260206000200160009091909190915055600061137533611a55565b9050600073ffffffffffffffffffffffffffffffffffffffff168160000160009054906101000a900473ffffffffffffffffffffffffffffffffffffffff1673ffffffffffffffffffffffffffffffffffffffff160361159c576040518060c001604052803373ffffffffffffffffffffffffffffffffffffffff168152602001838152602001600081526020016000815260200160008152602001600067ffffffffffffffff81111561142c5761142b612460565b5b60405190808252806020026020018201604052801561145a5781602001602082028036833780820191505090505b50815250600160003373ffffffffffffffffffffffffffffffffffffffff1673ffffffffffffffffffffffffffffffffffffffff16815260200190815260200160002060008201518160000160006101000a81548173ffffffffffffffffffffffffffffffffffffffff021916908373ffffffffffffffffffffffffffffffffffffffff16021790555060208201518160010190816114f99190612c34565b5060408201518160020155606082015181600301556080820151816004015560a0820151816005019080519060200190611534929190611b6e565b509050506002339080600181540180825580915050600190039060005260206000200160009091909190916101000a81548173ffffffffffffffffffffffffffffffffffffffff021916908373ffffffffffffffffffffffffffffffffffffffff1602179055505b8060020160008154809291906115b190612934565b91905055508060040160008154809291906115cb90612934565b91905055508060050185908060018154018082558091505060019003906000526020600020016000909190919091505560405180608001604052808681526020013373ffffffffffffffffffffffffffffffffffffffff1681526020018473ffffffffffffffffffffffffffffffffffffffff1681526020013373ffffffffffffffffffffffffffffffffffffffff16815250600360008781526020019081526020016000206000820151816000015560208201518160010160006101000a81548173ffffffffffffffffffffffffffffffffffffffff021916908373ffffffffffffffffffffffffffffffffffffffff16021790555060408201518160020160006101000a81548173ffffffffffffffffffffffffffffffffffffffff021916908373ffffffffffffffffffffffffffffffffffffffff16021790555060608201518160030160006101000a81548173ffffffffffffffffffffffffffffffffffffffff021916908373ffffffffffffffffffffffffffffffffffffffff16021790555090505060048590806001815401808255809150506001900390600052602060002001600090919091909150555050505050565b6060600060028054905067ffffffffffffffff8111156117a6576117a5612460565b5b6040519080825280602002602001820160405280156117df57816020015b6117cc611bbb565b8152602001906001900390816117c45790505b50905060005b600280549050811015611a0957600160006002838154811061180a57611809612876565b5b9060005260206000200160009054906101000a900473ffffffffffffffffffffffffffffffffffffffff1673ffffffffffffffffffffffffffffffffffffffff1673ffffffffffffffffffffffffffffffffffffffff1681526020019081526020016000206040518060c00160405290816000820160009054906101000a900473ffffffffffffffffffffffffffffffffffffffff1673ffffffffffffffffffffffffffffffffffffffff1673ffffffffffffffffffffffffffffffffffffffff1681526020016001820180546118e0906128d4565b80601f016020809104026020016040519081016040528092919081815260200182805461190c906128d4565b80156119595780601f1061192e57610100808354040283529160200191611959565b820191906000526020600020905b81548152906001019060200180831161193c57829003601f168201915b50505050508152602001600282015481526020016003820154815260200160048201548152602001600582018054806020026020016040519081016040528092919081815260200182805480156119cf57602002820191906000526020600020905b8154815260200190600101908083116119bb575b5050505050815250508282815181106119eb576119ea612876565b5b60200260200101819052508080611a0190612934565b9150506117e5565b508091505090565b60056020528060005260406000206000915090508060000154908060010160009054906101000a900473ffffffffffffffffffffffffffffffffffffffff16905082565b6000600160008373ffffffffffffffffffffffffffffffffffffffff1673ffffffffffffffffffffffffffffffffffffffff1681526020019081526020016000209050919050565b604051806080016040528060008152602001600073ffffffffffffffffffffffffffffffffffffffff168152602001600073ffffffffffffffffffffffffffffffffffffffff168152602001600073ffffffffffffffffffffffffffffffffffffffff1681525090565b60405180606001604052806000815260200160608152602001600073ffffffffffffffffffffffffffffffffffffffff1681525090565b604051806040016040528060008152602001600073ffffffffffffffffffffffffffffffffffffffff1681525090565b828054828255906000526020600020908101928215611baa579160200282015b82811115611ba9578251825591602001919060010190611b8e565b5b509050611bb79190611c07565b5090565b6040518060c00160405280600073ffffffffffffffffffffffffffffffffffffffff16815260200160608152602001600081526020016000815260200160008152602001606081525090565b5b80821115611c20576000816000905550600101611c08565b5090565b6000604051905090565b600080fd5b600080fd5b6000819050919050565b611c4b81611c38565b8114611c5657600080fd5b50565b600081359050611c6881611c42565b92915050565b600060208284031215611c8457611c83611c2e565b5b6000611c9284828501611c59565b91505092915050565b611ca481611c38565b82525050565b600073ffffffffffffffffffffffffffffffffffffffff82169050919050565b6000611cd582611caa565b9050919050565b611ce581611cca565b82525050565b608082016000820151611d016000850182611c9b565b506020820151611d146020850182611cdc565b506040820151611d276040850182611cdc565b506060820151611d3a6060850182611cdc565b50505050565b6000608082019050611d556000830184611ceb565b92915050565b611d6481611c38565b82525050565b611d7381611cca565b82525050565b6000608082019050611d8e6000830187611d5b565b611d9b6020830186611d6a565b611da86040830185611d6a565b611db56060830184611d6a565b95945050505050565b600081519050919050565b600082825260208201905092915050565b6000819050602082019050919050565b600081519050919050565b600082825260208201905092915050565b60005b83811015611e24578082015181840152602081019050611e09565b60008484015250505050565b6000601f19601f8301169050919050565b6000611e4c82611dea565b611e568185611df5565b9350611e66818560208601611e06565b611e6f81611e30565b840191505092915050565b6000606083016000830151611e926000860182611c9b565b5060208301518482036020860152611eaa8282611e41565b9150506040830151611ebf6040860182611cdc565b508091505092915050565b6000611ed68383611e7a565b905092915050565b6000602082019050919050565b6000611ef682611dbe565b611f008185611dc9565b935083602082028501611f1285611dda565b8060005b85811015611f4e5784840389528151611f2f8582611eca565b9450611f3a83611ede565b925060208a01995050600181019050611f16565b50829750879550505050505092915050565b60006020820190508181036000830152611f7a8184611eeb565b905092915050565b600082825260208201905092915050565b6000611f9e82611dea565b611fa88185611f82565b9350611fb8818560208601611e06565b611fc181611e30565b840191505092915050565b60006020820190508181036000830152611fe68184611f93565b905092915050565b600081519050919050565b600082825260208201905092915050565b6000819050602082019050919050565b6040820160008201516120306000850182611c9b565b5060208201516120436020850182611cdc565b50505050565b6000612055838361201a565b60408301905092915050565b6000602082019050919050565b600061207982611fee565b6120838185611ff9565b935061208e8361200a565b8060005b838110156120bf5781516120a68882612049565b97506120b183612061565b925050600181019050612092565b5085935050505092915050565b600060208201905081810360008301526120e6818461206e565b905092915050565b60006060820190506121036000830186611d5b565b81810360208301526121158185611f93565b90506121246040830184611d6a565b949350505050565b6040820160008201516121426000850182611c9b565b5060208201516121556020850182611cdc565b50505050565b6000604082019050612170600083018461212c565b92915050565b61217f81611cca565b811461218a57600080fd5b50565b60008135905061219c81612176565b92915050565b6000602082840312156121b8576121b7611c2e565b5b60006121c68482850161218d565b91505092915050565b60006020820190506121e46000830184611d5b565b92915050565b6000819050919050565b600061220f61220a61220584611caa565b6121ea565b611caa565b9050919050565b6000612221826121f4565b9050919050565b600061223382612216565b9050919050565b61224381612228565b82525050565b600060208201905061225e600083018461223a565b92915050565b600081519050919050565b600082825260208201905092915050565b6000819050602082019050919050565b6080820160008201516122a66000850182611c9b565b5060208201516122b96020850182611cdc565b5060408201516122cc6040850182611cdc565b5060608201516122df6060850182611cdc565b50505050565b60006122f18383612290565b60808301905092915050565b6000602082019050919050565b600061231582612264565b61231f818561226f565b935061232a83612280565b8060005b8381101561235b57815161234288826122e5565b975061234d836122fd565b92505060018101905061232e565b5085935050505092915050565b60006020820190508181036000830152612382818461230a565b905092915050565b600060a08201905061239f6000830188611d6a565b81810360208301526123b18187611f93565b90506123c06040830186611d5b565b6123cd6060830185611d5b565b6123da6080830184611d5b565b9695505050505050565b60006060830160008301516123fc6000860182611c9b565b50602083015184820360208601526124148282611e41565b91505060408301516124296040860182611cdc565b508091505092915050565b6000602082019050818103600083015261244e81846123e4565b905092915050565b600080fd5b600080fd5b7f4e487b7100000000000000000000000000000000000000000000000000000000600052604160045260246000fd5b61249882611e30565b810181811067ffffffffffffffff821117156124b7576124b6612460565b5b80604052505050565b60006124ca611c24565b90506124d6828261248f565b919050565b600067ffffffffffffffff8211156124f6576124f5612460565b5b6124ff82611e30565b9050602081019050919050565b82818337600083830152505050565b600061252e612529846124db565b6124c0565b90508281526020810184848401111561254a5761254961245b565b5b61255584828561250c565b509392505050565b600082601f83011261257257612571612456565b5b813561258284826020860161251b565b91505092915050565b600080600080608085870312156125a5576125a4611c2e565b5b60006125b387828801611c59565b945050602085013567ffffffffffffffff8111156125d4576125d3611c33565b5b6125e08782880161255d565b93505060406125f18782880161218d565b925050606085013567ffffffffffffffff81111561261257612611611c33565b5b61261e8782880161255d565b91505092959194509250565b600081519050919050565b600082825260208201905092915050565b6000819050602082019050919050565b600081519050919050565b600082825260208201905092915050565b6000819050602082019050919050565b600061268e8383611c9b565b60208301905092915050565b6000602082019050919050565b60006126b282612656565b6126bc8185612661565b93506126c783612672565b8060005b838110156126f85781516126df8882612682565b97506126ea8361269a565b9250506001810190506126cb565b5085935050505092915050565b600060c08301600083015161271d6000860182611cdc565b50602083015184820360208601526127358282611e41565b915050604083015161274a6040860182611c9b565b50606083015161275d6060860182611c9b565b5060808301516127706080860182611c9b565b5060a083015184820360a086015261278882826126a7565b9150508091505092915050565b60006127a18383612705565b905092915050565b6000602082019050919050565b60006127c18261262a565b6127cb8185612635565b9350836020820285016127dd85612646565b8060005b8581101561281957848403895281516127fa8582612795565b9450612805836127a9565b925060208a019950506001810190506127e1565b50829750879550505050505092915050565b6000602082019050818103600083015261284581846127b6565b905092915050565b60006040820190506128626000830185611d5b565b61286f6020830184611d6a565b9392505050565b7f4e487b7100000000000000000000000000000000000000000000000000000000600052603260045260246000fd5b7f4e487b7100000000000000000000000000000000000000000000000000000000600052602260045260246000fd5b600060028204905060018216806128ec57607f821691505b6020821081036128ff576128fe6128a5565b5b50919050565b7f4e487b7100000000000000000000000000000000000000000000000000000000600052601160045260246000fd5b600061293f82611c38565b91507fffffffffffffffffffffffffffffffffffffffffffffffffffffffffffffffff820361297157612970612905565b5b600182019050919050565b600061298f61298a846124db565b6124c0565b9050828152602081018484840111156129ab576129aa61245b565b5b6129b6848285611e06565b509392505050565b600082601f8301126129d3576129d2612456565b5b81516129e384826020860161297c565b91505092915050565b600060208284031215612a0257612a01611c2e565b5b600082015167ffffffffffffffff811115612a2057612a1f611c33565b5b612a2c848285016129be565b91505092915050565b6000602082019050612a4a6000830184611d6a565b92915050565b600081519050612a5f81611c42565b92915050565b600060208284031215612a7b57612a7a611c2e565b5b6000612a8984828501612a50565b91505092915050565b60008190508160005260206000209050919050565b60006020601f8301049050919050565b600082821b905092915050565b600060088302612af47fffffffffffffffffffffffffffffffffffffffffffffffffffffffffffffffff82612ab7565b612afe8683612ab7565b95508019841693508086168417925050509392505050565b6000612b31612b2c612b2784611c38565b6121ea565b611c38565b9050919050565b6000819050919050565b612b4b83612b16565b612b5f612b5782612b38565b848454612ac4565b825550505050565b600090565b612b74612b67565b612b7f818484612b42565b505050565b5b81811015612ba357612b98600082612b6c565b600181019050612b85565b5050565b601f821115612be857612bb981612a92565b612bc284612aa7565b81016020851015612bd1578190505b612be5612bdd85612aa7565b830182612b84565b50505b505050565b600082821c905092915050565b6000612c0b60001984600802612bed565b1980831691505092915050565b6000612c248383612bfa565b9150826002028217905092915050565b612c3d82611dea565b67ffffffffffffffff811115612c5657612c55612460565b5b612c6082546128d4565b612c6b828285612ba7565b600060209050601f831160018114612c9e5760008415612c8c578287015190505b612c968582612c18565b865550612cfe565b601f198416612cac86612a92565b60005b82811015612cd457848901518255600182019150602085019450602081019050612caf565b86831015612cf15784890151612ced601f891682612bfa565b8355505b6001600288020188555050505b50505050505056fea26469706673582212200e822ebbda91edb5dcbc2935c1f4e269f9e750e2e497df53cc2fc74b805ac0c964736f6c6343000813003360806040523480156200001157600080fd5b506000339050806000806101000a81548173ffffffffffffffffffffffffffffffffffffffff021916908373ffffffffffffffffffffffffffffffffffffffff1602179055508073ffffffffffffffffffffffffffffffffffffffff16600073ffffffffffffffffffffffffffffffffffffffff167f8be0079c531659141344cd1fd0a4f28419497f9722a3daafe3b4186f6b6457e060405160405180910390a3506040518060400160405280600581526020017f4f7761726500000000000000000000000000000000000000000000000000000081525060029081620000f99190620003c9565b506040518060400160405280600381526020017f4f5752000000000000000000000000000000000000000000000000000000000081525060039081620001409190620003c9565b506000600481905550620004b0565b600081519050919050565b7f4e487b7100000000000000000000000000000000000000000000000000000000600052604160045260246000fd5b7f4e487b7100000000000000000000000000000000000000000000000000000000600052602260045260246000fd5b60006002820490506001821680620001d157607f821691505b602082108103620001e757620001e662000189565b5b50919050565b60008190508160005260206000209050919050565b60006020601f8301049050919050565b600082821b905092915050565b600060088302620002517fffffffffffffffffffffffffffffffffffffffffffffffffffffffffffffffff8262000212565b6200025d868362000212565b95508019841693508086168417925050509392505050565b6000819050919050565b6000819050919050565b6000620002aa620002a46200029e8462000275565b6200027f565b62000275565b9050919050565b6000819050919050565b620002c68362000289565b620002de620002d582620002b1565b8484546200021f565b825550505050565b600090565b620002f5620002e6565b62000302818484620002bb565b505050565b5b818110156200032a576200031e600082620002eb565b60018101905062000308565b5050565b601f82111562000379576200034381620001ed565b6200034e8462000202565b810160208510156200035e578190505b620003766200036d8562000202565b83018262000307565b50505b505050565b600082821c905092915050565b60006200039e600019846008026200037e565b1980831691505092915050565b6000620003b983836200038b565b9150826002028217905092915050565b620003d4826200014f565b67ffffffffffffffff811115620003f057620003ef6200015a565b5b620003fc8254620001b8565b620004098282856200032e565b600060209050601f8311600181146200044157600084156200042c578287015190505b620004388582620003ab565b865550620004a8565b601f1984166200045186620001ed565b60005b828110156200047b5784890151825560018201915060208501945060208101905062000454565b868310156200049b578489015162000497601f8916826200038b565b8355505b6001600288020188555050505b505050505050565b610bd780620004c06000396000f3fe608060405234801561001057600080fd5b50600436106100935760003560e01c806370a082311161006657806370a0823114610120578063715018a6146101505780638da5cb5b1461015a57806395d89b4114610178578063f2fde38b1461019657610093565b806301173a741461009857806306fdde03146100b457806318160ddd146100d25780636914db60146100f0575b600080fd5b6100b260048036038101906100ad9190610836565b6101b2565b005b6100bc61027c565b6040516100c991906108f3565b60405180910390f35b6100da61030e565b6040516100e7919061092e565b60405180910390f35b61010a60048036038101906101059190610975565b610318565b60405161011791906108f3565b60405180910390f35b61013a60048036038101906101359190610836565b6103bd565b604051610147919061092e565b60405180910390f35b610158610406565b005b610162610552565b60405161016f91906109b1565b60405180910390f35b61018061057b565b60405161018d91906108f3565b60405180910390f35b6101b060048036038101906101ab9190610836565b61060d565b005b60006004549050816005600083815260200190815260200160002060006101000a81548173ffffffffffffffffffffffffffffffffffffffff021916908373ffffffffffffffffffffffffffffffffffffffff160217905550600660008373ffffffffffffffffffffffffffffffffffffffff1673ffffffffffffffffffffffffffffffffffffffff168152602001908152602001600020600081548092919061025b906109fb565b919050555060046000815480929190610273906109fb565b91905055505050565b60606002805461028b90610a72565b80601f01602080910402602001604051908101604052809291908181526020018280546102b790610a72565b80156103045780601f106102d957610100808354040283529160200191610304565b820191906000526020600020905b8154815290600101906020018083116102e757829003601f168201915b5050505050905090565b6000600454905090565b606060016000838152602001908152602001600020805461033890610a72565b80601f016020809104026020016040519081016040528092919081815260200182805461036490610a72565b80156103b15780601f10610386576101008083540402835291602001916103b1565b820191906000526020600020905b81548152906001019060200180831161039457829003601f168201915b50505050509050919050565b6000600660008373ffffffffffffffffffffffffffffffffffffffff1673ffffffffffffffffffffffffffffffffffffffff168152602001908152602001600020549050919050565b3373ffffffffffffffffffffffffffffffffffffffff1660008054906101000a900473ffffffffffffffffffffffffffffffffffffffff1673ffffffffffffffffffffffffffffffffffffffff1614610494576040517f08c379a000000000000000000000000000000000000000000000000000000000815260040161048b90610aef565b60405180910390fd5b600073ffffffffffffffffffffffffffffffffffffffff1660008054906101000a900473ffffffffffffffffffffffffffffffffffffffff1673ffffffffffffffffffffffffffffffffffffffff167f8be0079c531659141344cd1fd0a4f28419497f9722a3daafe3b4186f6b6457e060405160405180910390a360008060006101000a81548173ffffffffffffffffffffffffffffffffffffffff021916908373ffffffffffffffffffffffffffffffffffffffff160217905550565b60008060009054906101000a900473ffffffffffffffffffffffffffffffffffffffff16905090565b60606003805461058a90610a72565b80601f01602080910402602001604051908101604052809291908181526020018280546105b690610a72565b80156106035780601f106105d857610100808354040283529160200191610603565b820191906000526020600020905b8154815290600101906020018083116105e657829003601f168201915b5050505050905090565b3373ffffffffffffffffffffffffffffffffffffffff1660008054906101000a900473ffffffffffffffffffffffffffffffffffffffff1673ffffffffffffffffffffffffffffffffffffffff161461069b576040517f08c379a000000000000000000000000000000000000000000000000000000000815260040161069290610aef565b60405180910390fd5b6106a4816106a7565b50565b600073ffffffffffffffffffffffffffffffffffffffff168173ffffffffffffffffffffffffffffffffffffffff1603610716576040517f08c379a000000000000000000000000000000000000000000000000000000000815260040161070d90610b81565b60405180910390fd5b8073ffffffffffffffffffffffffffffffffffffffff1660008054906101000a900473ffffffffffffffffffffffffffffffffffffffff1673ffffffffffffffffffffffffffffffffffffffff167f8be0079c531659141344cd1fd0a4f28419497f9722a3daafe3b4186f6b6457e060405160405180910390a3806000806101000a81548173ffffffffffffffffffffffffffffffffffffffff021916908373ffffffffffffffffffffffffffffffffffffffff16021790555050565b600080fd5b600073ffffffffffffffffffffffffffffffffffffffff82169050919050565b6000610803826107d8565b9050919050565b610813816107f8565b811461081e57600080fd5b50565b6000813590506108308161080a565b92915050565b60006020828403121561084c5761084b6107d3565b5b600061085a84828501610821565b91505092915050565b600081519050919050565b600082825260208201905092915050565b60005b8381101561089d578082015181840152602081019050610882565b60008484015250505050565b6000601f19601f8301169050919050565b60006108c582610863565b6108cf818561086e565b93506108df81856020860161087f565b6108e8816108a9565b840191505092915050565b6000602082019050818103600083015261090d81846108ba565b905092915050565b6000819050919050565b61092881610915565b82525050565b6000602082019050610943600083018461091f565b92915050565b61095281610915565b811461095d57600080fd5b50565b60008135905061096f81610949565b92915050565b60006020828403121561098b5761098a6107d3565b5b600061099984828501610960565b91505092915050565b6109ab816107f8565b82525050565b60006020820190506109c660008301846109a2565b92915050565b7f4e487b7100000000000000000000000000000000000000000000000000000000600052601160045260246000fd5b6000610a0682610915565b91507fffffffffffffffffffffffffffffffffffffffffffffffffffffffffffffffff8203610a3857610a376109cc565b5b600182019050919050565b7f4e487b7100000000000000000000000000000000000000000000000000000000600052602260045260246000fd5b60006002820490506001821680610a8a57607f821691505b602082108103610a9d57610a9c610a43565b5b50919050565b7f4f776e61626c653a2063616c6c6572206973206e6f7420746865206f776e6572600082015250565b6000610ad960208361086e565b9150610ae482610aa3565b602082019050919050565b60006020820190508181036000830152610b0881610acc565b9050919050565b7f4f776e61626c653a206e6577206f776e657220697320746865207a65726f206160008201527f6464726573730000000000000000000000000000000000000000000000000000602082015250565b6000610b6b60268361086e565b9150610b7682610b0f565b604082019050919050565b60006020820190508181036000830152610b9a81610b5e565b905091905056fea26469706673582212207e0bacff0aa73231bb677c1d93e787b28f884a036d644c0ce7b22850f95f48e464736f6c63430008130033",
    "linkReferences": {},
    "deployedLinkReferences": {}
}